:020000040000FA
:10000000000400206D020000710200007302000075
:100010007502000077020000790200000000000075
:100020000000000000000000000000007B02000053
:100030007D020000000000007F020000810200003D
:10004000830200008302000083020000830200009C
:10005000830200008302000083020000830200008C
:10006000830200008302000083020000830200007C
:10007000830200008302000083020000830200006C
:10008000830200008302000083020000830200005C
:10009000830200008302000083020000830200004C
:1000A000830200008302000083020000830200003C
:1000B000830200008302000083020000830200002C
:1000C000830200008302000083020000830200001C
:1000D000830200008302000083020000830200000C
:1000E00083020000830200008302000083020000FC
:1000F00083020000830200008302000083020000EC
:1001000083020000830200008302000083020000DB
:1001100083020000830200008302000083020000CB
:1001200083020000830200008302000083020000BB
:1001300083020000830200008302000083020000AB
:1001400000000000000000000000000000000000AF
:10015000830200008302000083020000830200008B
:10016000000000000000000000000000000000008F
:10017000000000000000000000000000000000007F
:10018000000000000000000000000000000000006F
:10019000000000000000000000000000000000005F
:1001A000000000000000000000000000000000004F
:1001B000830200008302000083020000830200002B
:1001C000830200008302000083020000830200001B
:1001D000830200008302000083020000830200000B
:1001E00083020000830200008302000083020000FB
:1001F00083020000830200008302000083020000EB
:10020000830200008302000083020000000000005F
:1002100083020000830200008302000083020000CA
:1002200083020000830200008302000083020000BA
:1002300083020000830200008302000083020000AA
:10024000830200008302000083020000830200009A
:10025000830200008302000083020000830200008A
:1002600083020000830200008302000000F00AB84D
:10027000FEE7FEE7FEE7FEE7FEE7FEE7FEE7FEE756
:10028000FEE7FEE700F029F82B4800F023F800F025
:100290004BF801280AD010280DD0002810D01128C2
:1002A00013D04FF00E0000F044F8EDE74FF00400DB
:1002B00000F03FF8E8E74FF0020000F03AF8E3E71B
:1002C0004FF0080000F035F8DEE74FF0000000F0D6
:1002D00030F8D9E7401EFDD170471849086840F052
:1002E0002000086000BF00BF154916480860164985
:1002F0004FF0FF00086015494FF0000008601449F6
:100300004FF00000086013494FF00E0008601249DA
:100310004FF00000086011494FF0110008601049CB
:100320004FF0FF00086070470E49086800F01100A8
:1003300070470C4908607047AA46100008E60F4055
:10034000205502404B434F4C245502402855024053
:100350002C550240005402402054024010550240E7
:080360001C550240FC53024051
:040000050000026D88
:00000001FF
