:020000040000FA
:10000000000400206D020000710200007302000075
:100010007502000077020000790200000000000075
:100020000000000000000000000000007B02000053
:100030007D020000000000007F020000810200003D
:10004000830200008302000083020000830200009C
:10005000830200008302000083020000830200008C
:10006000830200008302000083020000830200007C
:10007000830200008302000083020000830200006C
:10008000830200008302000083020000830200005C
:10009000830200008302000083020000830200004C
:1000A000830200008302000083020000830200003C
:1000B000830200008302000083020000830200002C
:1000C000830200008302000083020000830200001C
:1000D000830200008302000083020000830200000C
:1000E00083020000830200008302000083020000FC
:1000F00083020000830200008302000083020000EC
:1001000083020000830200008302000083020000DB
:1001100083020000830200008302000083020000CB
:1001200083020000830200008302000083020000BB
:1001300083020000830200008302000083020000AB
:1001400000000000000000000000000000000000AF
:10015000830200008302000083020000830200008B
:10016000000000000000000000000000000000008F
:10017000000000000000000000000000000000007F
:10018000000000000000000000000000000000006F
:10019000000000000000000000000000000000005F
:1001A000000000000000000000000000000000004F
:1001B000830200008302000083020000830200002B
:1001C000830200008302000083020000830200001B
:1001D000830200008302000083020000830200000B
:1001E00083020000830200008302000083020000FB
:1001F00083020000830200008302000083020000EB
:10020000830200008302000083020000000000005F
:1002100083020000830200008302000083020000CA
:1002200083020000830200008302000083020000BA
:1002300083020000830200008302000083020000AA
:10024000830200008302000083020000830200009A
:10025000830200008302000083020000830200008A
:1002600083020000830200008302000000F00AB84D
:10027000FEE7FEE7FEE7FEE7FEE7FEE7FEE7FEE756
:10028000FEE7FEE700F034F800F061F800F057F800
:1002900001280AD0102811D0002818D011281FD00A
:1002A0004FF00E0000F050F8F0E74FF0040000F0BF
:1002B0004BF842F6597000F083F8E7E74FF0020080
:1002C00000F042F842F62C2000F07AF8DEE74FF01A
:1002D000080000F039F842F2D57000F071F8D5E767
:1002E0004FF0000000F030F8D0E7401EFDD170471D
:1002F0004049086840F02000086000BF00BF3E4948
:100300003E4808603E494FF0FF0008603D494FF00D
:10031000000008603C494FF0000008603B494FF086
:100320000E0008603A494FF00000086039494FF06C
:100330001100086038494FF0FF00086070473749E6
:10034000086800F011007047344908607047294977
:10035000086840F00800086000BF00BF3049274827
:10036000086030494FF0FF0008602F494FF000004F
:1003700008602E494FF0000008602D494FF0010041
:1003800008602C494FF0000008602B494FF0010035
:1003900008602A494FF001000860704700B54FF02F
:1003A0000100274908602748FFF79FFF4FF0000032
:1003B000234908602348FFF798FF5DF804EB704776
:1003C00000B5044605464FF001001D490860FFF7DF
:1003D0008CFF013C002CF6D14FF00000184908605A
:1003E0004FF00100FFF781FF013D002DF4D15DF8D2
:1003F00004EB704708E60F40205502404B434F4C3A
:1004000024550240285502402C5502400054024019
:1004100020540240105502401C550240FC5302403B
:100420002075004024750040287500402C75004060
:100430000074004020740040107500401C7500409E
:08044000FC7300405558140044
:040000050000026D88
:00000001FF
