:020000040000FA
:10000000000400206D020000710200007302000075
:100010007502000077020000790200000000000075
:100020000000000000000000000000007B02000053
:100030007D020000000000007F020000810200003D
:10004000830200008302000083020000830200009C
:10005000830200008302000083020000830200008C
:10006000830200008302000083020000830200007C
:10007000830200008302000083020000830200006C
:10008000830200008302000083020000830200005C
:10009000830200008302000083020000830200004C
:1000A000830200008302000083020000830200003C
:1000B000830200008302000083020000830200002C
:1000C000830200008302000083020000830200001C
:1000D000830200008302000083020000830200000C
:1000E00083020000830200008302000083020000FC
:1000F00083020000830200008302000083020000EC
:1001000083020000830200008302000083020000DB
:1001100083020000830200008302000083020000CB
:1001200083020000830200008302000083020000BB
:1001300083020000830200008302000083020000AB
:1001400000000000000000000000000000000000AF
:10015000830200008302000083020000830200008B
:10016000000000000000000000000000000000008F
:10017000000000000000000000000000000000007F
:10018000000000000000000000000000000000006F
:10019000000000000000000000000000000000005F
:1001A000000000000000000000000000000000004F
:1001B000830200008302000083020000830200002B
:1001C000830200008302000083020000830200001B
:1001D000830200008302000083020000830200000B
:1001E00083020000830200008302000083020000FB
:1001F00083020000830200008302000083020000EB
:10020000830200008302000083020000000000005F
:1002100083020000830200008302000083020000CA
:1002200083020000830200008302000083020000BA
:1002300083020000830200008302000083020000AA
:10024000830200008302000083020000830200009A
:10025000830200008302000083020000830200008A
:1002600083020000830200008302000000F00AB84D
:10027000FEE7FEE7FEE7FEE7FEE7FEE7FEE7FEE756
:10028000FEE7FEE700F036F800F063F84FF00006F6
:1002900000F057F801280AD0102811D0002818D0F3
:1002A00011281FD04FF00E0000F050F8F0E74FF08B
:1002B000040000F04BF842F6597400F083F8E7E7C9
:1002C0004FF0020000F042F842F62C2400F07AF8D9
:1002D000DEE74FF0080000F039F842F2D57400F084
:1002E00071F8D5E74FF0000000F030F8D0E7401E7D
:1002F000FDD170473A49086840F02000086000BF0F
:1003000000BF38493848086038494FF0FF0008609E
:1003100037494FF00000086036494FF00000086090
:1003200035494FF00E00086034494FF00000086076
:1003300033494FF01100086032494FF0FF00086068
:1003400070473149086800F0110070472E49086075
:1003500070472349086840F00800086000BF00BFEC
:100360002A49214808602A494FF0FF0008602949BE
:100370004FF00000086028494FF00000086027494E
:100380004FF00100086026494FF000000860254941
:100390004FF00100086024494FF0010008607047E9
:1003A00000B54FF00100214908602148FFF79FFF89
:1003B0004FF000001D4908601D48FFF798FF5DF8E9
:1003C00004EB704700B5194986F001060E604FF046
:1003D0000100FFF78CFF641E5DF804EBF2D170475B
:1003E00008E60F40205502404B434F4C2455024035
:1003F000285502402C55024000540240205402402F
:10040000105502401C550240FC530240207500402C
:1004100024750040287500402C7500400074004091
:1004200020740040107500401C750040FC730040B3
:040430005558140007
:040000050000026D88
:00000001FF
