:020000040000FA
:10000000000400206D020000710200007302000075
:100010007502000077020000790200000000000075
:100020000000000000000000000000007B02000053
:100030007D020000000000007F020000810200003D
:10004000830200008302000083020000830200009C
:10005000830200008302000083020000830200008C
:10006000830200008302000083020000830200007C
:10007000830200008302000083020000830200006C
:10008000830200008302000083020000830200005C
:10009000830200008302000083020000830200004C
:1000A000830200008302000083020000830200003C
:1000B000830200008302000083020000830200002C
:1000C000830200008302000083020000830200001C
:1000D000830200008302000083020000830200000C
:1000E00083020000830200008302000083020000FC
:1000F00083020000830200008302000083020000EC
:1001000083020000830200008302000083020000DB
:1001100083020000830200008302000083020000CB
:1001200083020000830200008302000083020000BB
:1001300083020000830200008302000083020000AB
:1001400000000000000000000000000000000000AF
:10015000830200008302000083020000830200008B
:10016000000000000000000000000000000000008F
:10017000000000000000000000000000000000007F
:10018000000000000000000000000000000000006F
:10019000000000000000000000000000000000005F
:1001A000000000000000000000000000000000004F
:1001B000830200008302000083020000830200002B
:1001C000830200008302000083020000830200001B
:1001D000830200008302000083020000830200000B
:1001E00083020000830200008302000083020000FB
:1001F00083020000830200008302000083020000EB
:10020000830200008302000083020000000000005F
:1002100083020000830200008302000083020000CA
:1002200083020000830200008302000083020000BA
:1002300083020000830200008302000083020000AA
:10024000830200008302000083020000830200009A
:10025000830200008302000083020000830200008A
:1002600083020000830200008302000000F012B845
:10027000FEE7FEE7FEE7FEE7FEE7FEE7FEE7FEE756
:10028000FEE7FEE70100000002000000030000009E
:100290000400000000F012F841F2342520B440BC04
:1002A0004FF0030400F038F800F02FF800F039F8B0
:1002B00000F02BF8641EF5D1EEE700002549086830
:1002C00040F02000086000BF00BF234923480860B9
:1002D00023494FF0FF00086022494FF000000860FA
:1002E00021494FF00000086020494FF00E000860DF
:1002F0001F494FF0000008601E494FF011000860D0
:100300001D494FF0FF00086070471C48401EFDD19A
:1003100070471B49086070471A494FF00400086095
:10032000704718494FF000000860704716494FF0B9
:1003300002000860704714494FF0000008607047E1
:1003400012494FF008000860704710494FF0000054
:100350000860704708E10F40205502404B434F4C66
:1003600024550240285502402C55024000540240BA
:1003700020540240105502401C5502405561510066
:10038000FC530240105002400850024020500240EE
:040000050000026D88
:00000001FF
